:020000040800F2
:10000000C0D0002069020008C31B0008E1060008F8
:10001000D30B000815050008672E0008000000003B
:10002000000000000000000000000000F9270008A8
:1000300019050008000000005F1C00085129000895
:100040008302000883020008830200089524000848
:10005000830200088302000883020008830200086C
:10006000830200088302000883020008830200085C
:10007000830200088302000883020008830200084C
:10008000830200088302000883020008830200083C
:10009000830200088302000883020008830200082C
:1000A000830200088302000883020008830200081C
:1000B00083020008E5290008772A00088302000867
:1000C00083020008830200088302000883020008FC
:1000D00083020008052C0008830200088302000840
:1000E000830200082D1F0008830200088302000815
:1000F00083020008830200088302000883020008CC
:1001000083020008830200088302000883020008BB
:1001100083020008830200088302000883020008AB
:10012000830200088302000883020008830200089B
:10013000830200088302000883020008830200088B
:10014000830200088302000883020008830200087B
:10015000830200088302000883020008830200086B
:10016000830200088302000883020008830200085B
:10017000830200088302000883020008830200084B
:10018000830200088302000800F002F800F05CF827
:100190000AA090E8000C82448344AAF10107DA45E2
:1001A00001D100F051F8AFF2090EBAE80F0013F0D8
:1001B000010F18BFFB1A43F0010318470495020012
:1001C000249502000A444FF0000C10F8013B13F094
:1001D000070408BF10F8014B1D1108BF10F8015BA0
:1001E000641E05D010F8016B641E01F8016BF9D193
:1001F00013F0080F1EBF10F8014BAD1C0C1B09D1EA
:100200006D1E58BF01F801CBFAD505E014F8016B5B
:1002100001F8016B6D1EF9D59142D6D370470000ED
:100220000023002400250026103A28BF78C1FBD8FF
:10023000520728BF30C148BF0B6070471FB51FF081
:10024000E8F81FBD10B510BD00F01EF91146FFF70C
:10025000F5FF1AF024FE00F050F903B4FFF7F2FFA7
:1002600003BC06F0B1F80000094880470948004780
:10027000FEE7FEE7FEE7FEE7FEE7FEE7FEE7FEE756
:10028000FEE7FEE704480549054A064B70470000B3
:100290005329000889010008C0900020C0D0002028
:1002A000C0B00020C0B00020704700000FB4044967
:1002B00010B503AA029800F0B9F810BC5DF814FB61
:1002C0008000002040EA010310B59B070FD1042AEB
:1002D0000DD310C808C9121F9C42F8D020BA19BA11
:1002E000884201D9012010BD4FF0FF3010BD1AB176
:1002F000D30703D0521C07E0002010BD10F8013BCB
:1003000011F8014B1B1B07D110F8013B11F8014BF1
:100310001B1B01D1921EF1D1184610BD40EA01030A
:10032000024630B59B0710D14FF0013400E008C2FF
:1003300008C91D1B9D4315EAC41FF8D013F0FF0127
:1003400002F8011B0DD01B0AF8E711F8013B002B46
:1003500002F8013B05D011F8013B002B02F8013BEC
:10036000F3D130BD10B5431C02E010F8011B71B190
:100370008107FAD14FF0013202C88C1A8C4314EA7B
:10038000C211F9D0C01A0A0603D0C01E10BDC01A8F
:1003900010BD0A0401D0801E10BD0902FCD0401E11
:1003A00010BD00004FF0013C50F8042B51F8043B05
:1003B0009A4221D1A2EB0C03934313EACC1317D139
:1003C00050F8042B51F8043B9A4215D1A2EB0C03D0
:1003D000934313EACC130BD150F8042B51F8043B90
:1003E0009A4209D1A2EB0C03934313EACC13DBD05E
:1003F0004FF00000704700BFD01A01BAB1FA81F186
:1004000001F0180122FA01F0CB40C1F12001DBB26A
:10041000C0B2C01A2CFA01F3D11A914311EAC311E8
:10042000E6D170477047704770477047074B70B50B
:100430000D467B4400F011F80446284600F020F8F1
:1004400010B14FF0FF3070BD204670BD17D40000D2
:1004500001694A1C02610878704700B58FB0CDE988
:1004600001310021059105497944CDE90310114678
:10047000684600F02EF80FB000BD0000E5FFFFFF5A
:10048000007B00F080007047754600F03FF8AE46F4
:1004900005006946534620F00700854618B020B590
:1004A000FFF7F0FEBDE820404FF000064FF00007D8
:1004B0004FF000084FF0000B21F00701AC46ACE80C
:1004C000C009ACE8C009ACE8C009ACE8C0098D4679
:1004D00070472DE9F04106460024D6E90170F56821
:1004E0008046304603E04146B847641C3046A84782
:1004F0000028F8D12046BDE8F08110B50446AFF3DE
:1005000000802046BDE81040FFF7A7BE00487047B6
:100510005C90002000BFFEE7704743F61441C4F230
:1005200001010860704700214FF47051C4F20101CD
:100530008279002A47D00A46126803689A430B461C
:100540001A600A1D126803689A430B1D1A6002792B
:1005500011440A6803681A430A6043F60842C4F269
:100560000102126803689A4343F60843C4F2010388
:100570001A601A1D126803689A4343F60C43C4F2CA
:1005800001031A604279102A12D11A1F12680368F7
:100590001A4343F60843C4F201031A601A1D126895
:1005A00003681A4343F60C43C4F201031A6010E0D7
:1005B0004FF47051C4F20101427911440A68036892
:1005C0001A430A6005E0027911440A6803689A43F5
:1005D0000A607047F0B50A4600210023002400BFDE
:1005E0003DE0012505FA01F3156805EA03049C4284
:1005F00034D105684F000326BE40B5430560157928
:100600004E00B5400668354305601579012D02D0CE
:100610001579022D16D185684F000326BE40B543DB
:10062000856055794E00B5408668354385604568DC
:1006300001268E40B5434560456896798E40B6B236
:1006400035434560C5684F000326BE40B543C560CD
:10065000D5794E00B540C6683543C560491C1029A0
:10066000BFD3F0BDF0B5002300244D07ED0E02FA14
:1006700005F3CE1000F1200555F826504E07F70E71
:100680000F26BE40B543CF1000F1200646F8275094
:10069000CE1000F1200555F8265045EA0304CE108F
:1006A00000F1200545F82640F0BD02460020136900
:1006B0000B400BB1012000E0002070470183704720
:1006C00070B504460D461646681C83B2601C82B2A3
:1006D0002946204600F038FA304600F0DCF870BDBC
:1006E00000BFFEE71CB50121112001F0B9FA1C2062
:1006F000009000208DF8040003208DF805000120F3
:100700008DF8070069464FF48050C4F20200FFF7ED
:1007100061FF0120009002208DF80700694600204B
:10072000C4F20200FFF756FF1CBD10B504462CB101
:10073000012040F27401C2F20001087040F274001E
:10074000C2F200000078002850D010214FF48050F1
:10075000C4F20200FFF7A9FFB8B108214FF480509E
:10076000C4F20200FFF7A1FF78B104214FF48050DA
:10077000C4F20200FFF799FF38B101210020C4F252
:100780000200FFF792FF012830D10A2009F017FB81
:10079000002040F27401C2F20001087010214FF4F1
:1007A0008050C4F20200FFF780FF08B9012010BD9D
:1007B00008214FF48050C4F20200FFF776FF08B919
:1007C0000220F4E704214FF48050C4F20200FFF746
:1007D0006CFF08B90320EAE701210020C4F20200FF
:1007E000FFF763FF012829D10420E0E710214FF42F
:1007F0008050C4F20200FFF758FF01281ED10821E3
:100800004FF48050C4F20200FFF74FFF012815D1CA
:1008100004214FF48050C4F20200FFF746FF012884
:100820000CD101210020C4F20200FFF73EFF28B9DD
:10083000012040F27401C2F2000108700020B6E706
:100840001CB50121202001F00BFA4FF4C06000908C
:1008500001208DF8040000208DF8060003208DF89B
:10086000050001208DF8070069464FF4A050C4F23E
:100870000200FFF7AFFE4FF4C0614FF4A050C4F286
:100880000200FFF71BFF01F0CAFE00F013F8002082
:1008900001F059FF1CBD10B50446012048F2A42107
:1008A000C4F242210860201201F0A0FFE0B201F082
:1008B0009DFF10BD1CB50121202001F0D1F94FF49E
:1008C000C060009001208DF8040000208DF8060023
:1008D00003208DF8050001208DF8070069464FF4CC
:1008E000A050C4F20200FFF775FE4FF4C0614FF450
:1008F000A050C4F20200FFF7E1FE1CBD10B5FFF7E7
:100900009FFF00F00CF9112000F057F9782009F052
:1009100056FAB12000F051F9012000F042F92C20E4
:1009200000F03FF92D2000F03CF9B22000F045F92D
:10093000012000F036F92C2000F033F92D2000F0D2
:1009400030F9B32000F039F9012000F02AF92C2009
:1009500000F027F92D2000F024F9012000F021F902
:100960002C2000F01EF92D2000F01BF9B42000F01F
:1009700024F9072000F015F9C02000F01EF9A2208C
:1009800000F00FF9022000F00CF9842000F009F9C2
:10099000C12000F012F9C52000F003F9C22000F0D8
:1009A0000CF90A2000F0FDF8002000F0FAF8C3204E
:1009B00000F003F98A2000F0F4F82A2000F0F1F8A2
:1009C000C42000F0FAF88A2000F0EBF8EE2000F0E6
:1009D000E8F8C52000F0F1F80E2000F0E2F836202B
:1009E00000F0EBF8C82000F0DCF8E02000F0E5F8BB
:1009F0000F2000F0D6F81A2000F0D3F80F2000F0F6
:100A0000D0F8182000F0CDF82F2000F0CAF82820E8
:100A100000F0C7F8202000F0C4F8222000F0C1F850
:100A20001F2000F0BEF81B2000F0BBF8232000F0D0
:100A3000B8F8372000F0B5F8002000F0B2F8072031
:100A400000F0AFF8022000F0ACF8102000F0A9F898
:100A5000E12000F0B2F80F2000F0A3F81B2000F016
:100A6000A0F80F2000F09DF8172000F09AF833202E
:100A700000F097F82C2000F094F8292000F091F86D
:100A80002E2000F08EF8302000F08BF8302000F09F
:100A900088F8392000F085F83F2000F082F8002027
:100AA00000F07FF8072000F07CF8032000F079F8D0
:100AB000102000F076F82A2000F07FF8002000F0E7
:100AC00070F8002000F06DF8002000F06AF87F2038
:100AD00000F067F82B2000F070F8002000F061F8BB
:100AE000002000F05EF8002000F05BF89F2000F08E
:100AF00058F8F02000F061F8012000F052F8F620DC
:100B000000F05BF8002000F04CF83A2000F055F8B7
:100B1000052000F046F8292000F04FF810BD10B570
:100B2000002048F2A821C4F242210860642009F0A4
:100B300046F901204FF40041C4F24221C1F8A80255
:100B4000322009F03CF910BD2DE9F04104460D4674
:100B500016461F462A2000F030F8002000F021F849
:100B6000A11CC8B200F01DF8002000F01AF8B11C5A
:100B7000C8B200F016F82B2000F01FF8002000F09B
:100B800010F8E91CC8B200F00CF8002000F009F8D9
:100B9000F91CC8B200F005F82C2000F00EF8BDE8F2
:100BA000F08110B50446012048F2A421C4F242218C
:100BB0000860204601F01AFE10BD10B50446002062
:100BC00048F2A421C4F242210860204601F00EFE42
:100BD00010BD00BFFEE73EB541F6FF7401210807D6
:100BE00001F057F8012001F035F8002001F0F5FA86
:100BF00045F25001884231D0012001F04FF904E064
:100C0000601C84B20A2009F0DAF8412001F021F9D1
:100C10000028F5D00CB901203EBD4FF4807001F0E2
:100C200060F9012001F057F97F200190FF20029028
:100C300000200090684601F091FA002332220B2137
:100C4000112001F0DCFB04230A220221162001F00E
:100C5000C4FB45F25001002001F0D2FC0020DBE78C
:100C600070B50024002140F21800C2F200000068B4
:100C700012F03CFF044643F25851C0F602012046F0
:100C800014F040F900221146204618F063F80025C0
:100C9000002140F21800C2F20000006812F026FFA6
:100CA000054643F6F071C0F60201284614F02AF911
:100CB0001E220021284618F04DF80026002140F29F
:100CC0001800C2F20000006812F010FF064644F659
:100CD0008821C0F60201304614F014F93C220021AC
:100CE000304618F037F870BD2DE9F0470024002198
:100CF00040F22000C2F20000006812F0F7FE044645
:100D000043F25851C0F60201204614F0FBF80022CD
:100D10001146204618F01EF80025002140F2200060
:100D2000C2F20000006812F0E1FE054643F6F071E1
:100D3000C0F60201284614F0E5F81E2200212846DC
:100D400018F008F80026002140F22000C2F200004E
:100D5000006812F0CBFE064644F68821C0F6020178
:100D6000304614F0CFF83C220021304617F0F2FF55
:100D70000027002140F22000C2F20000006812F0BB
:100D8000B5FE074645F22051C0F60201384614F080
:100D9000B9F85A220021384617F0DCFF4FF000085E
:100DA000002140F22000C2F20000006812F09EFE16
:100DB000804645F6B871C0F60201404614F0A2F82C
:100DC00078220021404617F0C5FF4FF000090021AE
:100DD00040F22000C2F20000006812F087FE814657
:100DE00046F65021C0F60201484614F08BF89622D0
:100DF0000021484617F0AEFFBDE8F0872DE9FC5F03
:100E00000024002140F21C00C2F20000006812F031
:100E10006DFE044643F25851C0F60201204614F01C
:100E200071F800221146204617F094FF002500219A
:100E300040F21C00C2F20000006812F057FE0546A6
:100E400043F6F071C0F60201284614F05BF81E224A
:100E50000021284617F07EFF0026002140F21C00EA
:100E6000C2F20000006812F041FE064644F68821F6
:100E7000C0F60201304614F045F83C22002130460D
:100E800017F068FF0027002140F21C00C2F20000AA
:100E9000006812F02BFE074645F22051C0F6020111
:100EA000384614F02FF85A220021384617F052FF26
:100EB0004FF00008002140F21C00C2F20000006860
:100EC00012F014FE804645F6B871C0F602014046A5
:100ED00014F018F878220021404617F03BFF4FF03D
:100EE0000009002140F21C00C2F20000006812F06C
:100EF000FDFD814646F65021C0F60201484614F039
:100F000001F896220021484617F024FF4FF0000A0E
:100F1000002140F21C00C2F20000006812F0E6FD61
:100F2000824647F2E841C0F60201504613F0EAFF5C
:100F3000B4220021504617F00DFF4FF0000B0021A6
:100F400040F21C00C2F20000006812F0CFFD8346A0
:100F500047F68071C0F60201584613F0D3FFD22243
:100F60000021584617F0F6FE00200190002140F2C3
:100F70001C00C2F20000006812F0B8FD019048F6B3
:100F80001821C0F60201019813F0BCFFF0220021E5
:100F9000019817F0DFFE00200090002140F21C00B5
:100FA000C2F20000006812F0A1FD009049F2B041C9
:100FB000C0F60201009813F0A5FF4FF487720021DC
:100FC000009817F0C7FEBDE8FC9F2DE9FC5F0024E8
:100FD000002140F22400C2F20000006812F086FDF9
:100FE000044643F25851C0F60201204613F08AFF2E
:100FF00000221146204617F0ADFE0025002140F2E8
:101000002400C2F20000006812F070FD054643F6AD
:10101000F071C0F60201284613F074FF1E22002171
:10102000284617F097FE0026002140F22400C2F265
:101030000000006812F05AFD064644F68821C0F60A
:101040000201304613F05EFF3C220021304617F0CB
:1010500081FE0027002140F22400C2F20000006857
:1010600012F044FD074645F22051C0F60201384611
:1010700013F048FF5A220021384617F06BFE4FF05C
:101080000008002140F22400C2F20000006812F0C3
:101090002DFD804645F6B871C0F60201404613F0BA
:1010A00031FF78220021404617F054FE4FF000092E
:1010B000002140F22400C2F20000006812F016FD88
:1010C000814646F65021C0F60201484613F01AFF49
:1010D00096220021484617F03DFE4FF0000A0021FD
:1010E00040F22400C2F20000006812F0FFFC8246C9
:1010F00047F2E841C0F60201504613F003FFB42264
:101100000021504617F026FE4FF0000B002140F260
:101110002400C2F20000006812F0E8FC834647F6A3
:101120008071C0F60201584613F0ECFED222002175
:10113000584617F00FFE00200190002140F22400D5
:10114000C2F20000006812F0D1FC019048F61821AC
:10115000C0F60201019813F0D5FEF022002101989B
:1011600017F0F8FD00200090002140F22400C2F2A8
:101170000000006812F0BAFC009049F2B041C0F6DD
:101180000201009813F0BEFE4FF487720021009810
:1011900017F0E0FDBDE8FC9F70B50024002140F28F
:1011A0004C00C2F20000006812F0A0FC044643F2BA
:1011B0005851C0F60201204613F0A4FE0022114649
:1011C000204617F0C7FD0025002140F24C00C2F276
:1011D0000000006812F08AFC054643F6F071C0F684
:1011E0000201284613F08EFE1E220021284617F029
:1011F000B1FD0026002140F24C00C2F20000006860
:1012000012F074FC064644F68821C0F6020130460E
:1012100013F078FE3C220021304617F09BFD70BD94
:101220002DE9F0470024002140F25400C2F20000F2
:10123000006812F05BFC044643F25851C0F602010C
:10124000204613F05FFE00221146204617F082FD73
:101250000025002140F25400C2F20000006812F0A4
:1012600045FC054643F6F071C0F60201284613F02E
:1012700049FE1E220021284617F06CFD00260021A1
:1012800040F25400C2F20000006812F02FFC064643
:1012900044F68821C0F60201304613F033FE3C22AA
:1012A0000021304617F056FD0027002140F254007F
:1012B000C2F20000006812F019FC074645F2205106
:1012C000C0F60201384613F01DFE5A2200213846AE
:1012D00017F040FD4FF00008002140F25400C2F228
:1012E0000000006812F002FC804645F6B871C0F6B6
:1012F0000201404613F006FE78220021404617F016
:1013000029FD4FF00009002140F25400C2F2000014
:10131000006812F0EBFB814646F65021C0F6020150
:10132000484613F0EFFD96220021484617F012FDC3
:10133000BDE8F0872DE9FC5F0024002140F2500059
:10134000C2F20000006812F0D1FB044643F258518B
:10135000C0F60201204613F0D5FD002211462046BA
:1013600017F0F8FC0025002140F25000C2F2000006
:10137000006812F0BBFB054643F6F071C0F60201AF
:10138000284613F0BFFD1E220021284617F0E2FC7C
:101390000026002140F25000C2F20000006812F066
:1013A000A5FB064644F68821C0F60201304613F03C
:1013B000A9FD3C220021304617F0CCFC002700217B
:1013C00040F25000C2F20000006812F08FFB0746A6
:1013D00045F22051C0F60201384613F093FD5A221F
:1013E0000021384617F0B6FC4FF00008002140F20B
:1013F0005000C2F20000006812F078FB804645F60B
:10140000B871C0F60201404613F07CFD782200213D
:10141000404617F09FFC4FF00009002140F25000B9
:10142000C2F20000006812F061FB814646F65021CE
:10143000C0F60201484613F065FD96220021484699
:1014400017F088FC4FF0000A002140F25000C2F271
:101450000000006812F04AFB824647F2E841C0F6FD
:101460000201504613F04EFDB4220021504617F001
:1014700071FC4FF0000B002140F25000C2F200005E
:10148000006812F033FB834647F68071C0F6020114
:10149000584613F037FDD2220021584617F05AFC67
:1014A00000200190002140F25000C2F200000068CC
:1014B00012F01CFB019048F61821C0F602010198B9
:1014C00013F020FDF0220021019817F043FC0020CA
:1014D0000090002140F25000C2F20000006812F0BB
:1014E00005FB009049F2B041C0F60201009813F0EC
:1014F00009FD4FF487720021009817F02BFCBDE81E
:10150000FC9F2DE9FC5F0024002140F25800C2F24C
:101510000000006812F0EAFA044643F25851C0F69F
:101520000201204613F0EEFC00221146204617F07F
:1015300011FC0025002140F25800C2F200000068B2
:1015400012F0D4FA054643F6F071C0F602012846BF
:1015500013F0D8FC1E220021284617F0FBFB0026C2
:10156000002140F25800C2F20000006812F0BEFAFA
:10157000064644F68821C0F60201304613F0C2FC4C
:101580003C220021304617F0E5FB0027002140F205
:101590005800C2F20000006812F0A8FA074645F2AF
:1015A0002051C0F60201384613F0ACFC5A2200214B
:1015B000384617F0CFFB4FF00008002140F25800EA
:1015C000C2F20000006812F091FA804645F6B87148
:1015D000C0F60201404613F095FC782200214046F7
:1015E00017F0B8FB4FF00009002140F25800C2F29A
:1015F0000000006812F07AFA814646F65021C0F6E3
:101600000201484613F07EFC96220021484617F05E
:10161000A1FB4FF0000A002140F25800C2F2000086
:10162000006812F063FA824647F2E841C0F6020110
:10163000504613F067FCB4220021504617F08AFB95
:101640004FF0000B002140F25800C2F20000006889
:1016500012F04CFA834647F68071C0F602015846F4
:1016600013F050FCD2220021584617F073FB0020E3
:101670000190002140F25800C2F20000006812F010
:1016800035FA019048F61821C0F60201019813F0CE
:1016900039FCF0220021019817F05CFB002000903B
:1016A000002140F25800C2F20000006812F01EFA59
:1016B000009049F2B041C0F60201009813F022FCFC
:1016C0004FF487720021009817F044FBBDE8FC9F9F
:1016D0002DE9F04F87B000BF0FF048FE05460FF030
:1016E00093FE0446002115F00DFC40F20401C2F205
:1016F000000108608222114640F20400C2F200009C
:10170000006817F09FFB4FF0FF32114640F20400D3
:10171000C2F20000006817F01DFB002140F2040037
:10172000C2F20000006815F0EDFB40F20801C2F2C1
:10173000000108601E22114640F20800C2F20000BB
:10174000006817F07FFB2822002140F20800C2F257
:101750000000006817F0FEFA002140F20400C2F217
:101760000000006815F0CEFB40F20C01C2F200014F
:1017700008601E22114640F20C00C2F20000006810
:1017800017F060FB28221E2140F20C00C2F200007C
:10179000006817F0DFFA002140F20400C2F20000F6
:1017A000006815F0AFFB40F21001C2F200010860C2
:1017B0001E22114640F21000C2F20000006817F02D
:1017C00041FB2822442140F21000C2F200000068D0
:1017D00017F0C0FA002140F20400C2F200000068D5
:1017E00015F090FB40F21401C2F2000108601E22C5
:1017F000114640F21400C2F20000006817F022FB0C
:101800002822622140F21400C2F20000006817F0A2
:10181000A1FA00200690002140F26400C2F200000C
:10182000069A18F09CFB40F26402C2F2000200210A
:1018300040F20400C2F20000006815F0B6F9002082
:101840000590002140F26800C2F20000059A18F0ED
:1018500086FB40F26802C2F20002002140F208005A
:10186000C2F20000006815F0A0F940F26802C2F26E
:101870000002002140F20C00C2F20000006815F0E6
:1018800094F940F26802C2F20002002140F2100016
:10189000C2F20000006815F088F940F26802C2F256
:1018A0000002002140F21400C2F20000006815F0AE
:1018B0007CF90020049040F26804C2F20004002584
:1018C00004980090392040EA05212046009A04F04F
:1018D00017FA00BF002140F20800C2F200000068C1
:1018E0000EF02AFD40F21801C2F2000108605A22EF
:1018F0001E2140F21800C2F20000006817F0A2FAA0
:101900000022114640F21800C2F20000006817F0F1
:1019100021FA002140F20C00C2F2000000680EF033
:101920000BFD40F21C01C2F2000108604FF49672F8
:101930001E2140F21C00C2F20000006817F082FA7B
:101940000022114640F21C00C2F20000006817F0AD
:1019500001FA002140F21000C2F2000000680EF00F
:10196000EBFC40F22001C2F200010860B4221E210B
:1019700040F22000C2F20000006817F063FA002273
:10198000114640F22000C2F20000006817F0E2F9B0
:10199000002140F21400C2F2000000680EF0CCFCFE
:1019A00040F22401C2F2000108604FF496721E2139
:1019B00040F22400C2F20000006817F043FA00224F
:1019C000114640F22400C2F20000006817F0C2F98C
:1019D00000200390002140F26C00C2F20000039A44
:1019E00018F0BDFA40F26C02C2F20002002140F28F
:1019F0001800C2F20000006815F0D7F8FFF730F9C0
:101A0000FFF772F9FFF7FAF9FFF7DFFA002140F26A
:101A10000400C2F20000006813F0E7FD0746012150
:101A2000384614F067FD0121384614F029FE49F2CA
:101A3000BC41C0F60201384614F048FE2E223F2178
:101A4000384617F087F9002140F20400C2F2000086
:101A5000006813F0CAFD80460121404614F04AFD9B
:101A60000121404614F00CFE49F2C841C0F60201C3
:101A7000404614F02BFE14220021404617F06AF96C
:101A8000002140F20400C2F20000006813F0ADFD36
:101A900081460121484614F02DFD0121484614F0ED
:101AA000EFFD49F2D841C0F60201484614F00EFE9F
:101AB00014222B21484617F04DF9002140F2040072
:101AC000C2F20000006813F090FD824601215046EA
:101AD00014F010FD0121504614F0D2FD49F2E4410A
:101AE000C0F60201504614F0F1FD14224621504682
:101AF00017F030F9002140F20400C2F20000006843
:101B000013F073FD83460121584614F0F3FC0121C4
:101B1000584614F0B5FD49F2F041C0F602015846AE
:101B200014F0D4FD15222421584617F013F9002192
:101B300040F20400C2F20000006813F056FD02906B
:101B40000121029814F0D6FC0121029814F098FDAE
:101B500049F2F041C0F60201029814F0B7FD1522D7
:101B60003F21029817F0F6F8002140F20400C2F27B
:101B70000000006813F039FD01900121019814F074
:101B8000B9FC0121019814F07BFD49F2FC41C0F63B
:101B90000201019814F09AFD14225A21019817F0BD
:101BA000D9F8002017F074FF18F0F6FE064600BFC3
:101BB000304618F0E4FEB0F5FA6FF9D307B0BDE88F
:101BC000F08F704770B5002100230F22C4784CB30A
:101BD0004EF60C54CEF20004246804F4E064C4F51C
:101BE000E064C4F30721C1F10404E3B20A4144787C
:101BF0009C40E1B28478144021430C07210E4FF43D
:101C00006444CEF2000405786155047804F01F05A1
:101C10000124AC4005786D11AD0005F1E025C5F853
:101C200000410CE0047804F01F050124AC404EF2A2
:101C30008015CEF200050678761145F8264070BD75
:101C400040F0FD7141F080614EF60C52CEF2000280
:101C5000116070470021C4F20E210862704770477E
:101C600059B143F63002C4F202021268024343F64D
:101C70003003C4F202031A600AE043F63002C4F2F1
:101C800002021268824343F63003C4F202031A6070
:101C9000704759B14FF46152C4F202021268024314
:101CA0004FF46153C4F202031A600AE04FF4615228
:101CB000C4F20202126882434FF46153C4F2020379
:101CC0001A60704759B143F64402C4F20202126826
:101CD000024343F64403C4F202031A600AE043F6E7
:101CE0004402C4F202021268824343F64403C4F27F
:101CF00002031A60704759B143F62402C4F202028B
:101D00001268024343F62403C4F202031A600AE095
:101D100043F62402C4F202021268824343F624030B
:101D2000C4F202031A607047F0B5002100220024BB
:101D300002250026022343F60807C4F202073F6883
:101D400007F00C0121B1042908D0082949D10BE082
:101D50004FF41057C0F2F407076048E04FF4905773
:101D6000C0F27A07076042E043F60407C4F20207B4
:101D70003F68C7F3805643F60407C4F202073F6882
:101D800007F03F0386B14FF49057C0F27A07B7FBD4
:101D9000F3F743F6040CC4F2020CDCF800C0CCF3F9
:101DA000881C07FB0CF40FE04FF41057C0F2F40747
:101DB000B7FBF3F743F6040CC4F2020CDCF800C0E6
:101DC000CCF3881C07FB0CF443F60407C4F20207AB
:101DD0003F68C7F301477F1C7D00B4FBF5F7076040
:101DE00005E04FF41057C0F2F407076000BF00BFD2
:101DF00043F60807C4F202073F6807F0F00109093B
:101E000040F28607C2F200077A5C0768D740476055
:101E100043F60807C4F202073F6807F4E051890A55
:101E200040F28607C2F200077A5C4768D7408760B5
:101E300043F60807C4F202073F6807F46041490B04
:101E400040F28607C2F200077A5C4768D740C76055
:101E5000F0BD10B501460022002300204A11012ADE
:101E600005D14FF46054C4F2020423680CE0022A46
:101E700005D143F67004C4F20204236804E043F67B
:101E80007404C4F20204236801F01F020124944088
:101E90001C400CB1012000E0002010BD002143F6E1
:101EA0007002C4F2020211701170012802D00428DD
:101EB0000ED106E0012143F67002C4F20202117055
:101EC00007E0052143F67002C4F20202117000E03F
:101ED00000BF00BF704740F63C61C4F24721086074
:101EE0007047002100F44072B2F5407F10D143F6F4
:101EF0000802C4F20202116821F4F81120F44072C1
:101F000022F07042114343F60802C4F2020211604B
:101F100043F67002C4F202021268C0F30B031A43C4
:101F200043F67003C4F202031A60704710B54FF411
:101F3000807000F08EF8012808D1000200F024F82B
:101F400049F21850C0F60200FEF7B0F94FF4003025
:101F5000FEF7E3FA10BD014600BF080900EB800060
:101F6000420001F00F001044C0B270470146002249
:101F700004E0501CC2B2A1F10A00C1B20A29F8DA89
:101F8000100741EA1060704781B241F0800142F6CB
:101F90000C02C4F20002126802F0800262EA01013F
:101FA00042F60C02C4F200021160704700210109E0
:101FB0008AB242F0800242F60C03C4F200031B68AE
:101FC00003F0800363EA020242F60C03C4F200034A
:101FD0001A60704708B5002200920020002142F6E6
:101FE0000C02C4F20002126802F0400212BB421E50
:101FF00042F60C03C4F200031A6000BF42F60C0262
:10200000C4F20002126802F04001009A521C0092D1
:10201000009AB2F5803F01D00029EFD042F60C02C1
:10202000C4F20002126802F040020AB1012002E08C
:10203000002000E0012008BD42F60C00C4F20000C0
:10204000006820F0800042F60C01C4F20001086034
:10205000704710B501460020002242F60C03C4F27E
:1020600000031B6843F67F74C0F2010403EA040214
:1020700002EA01030BB1012000E0002010BD70B5A1
:1020800006460C4600254FF42050C4F200000068BC
:1020900047F67F71C0F27F0100EA0105C5F30540F4
:1020A0002070C5F30620607005F07F00A07005F475
:1020B0008000000CE0705EB92078FFF74CFF2070C4
:1020C0006078FFF748FF6070A078FFF744FFA070CA
:1020D00070BDCA2242F62403C4F200031A605322E0
:1020E0001A60D1B142F60802C4F20002126820F070
:1020F00004031A4342F60803C4F200031A604FF4C3
:102100002152C4F20002126800F004031A434FF493
:102110002153C4F200031A6019E042F60802C4F227
:102120000002126820F004039A4342F60803C4F246
:1021300000031A604FF42152C4F20002126800F04A
:1021400004039A434FF42153C4F200031A60FF22A0
:1021500042F62403C4F200031A60704730B5044607
:102160000025CA2042F62401C4F200010860532071
:102170000860FFF72FFF00B927E042F60800C4F21D
:102180000000006820F0400042F60801C4F200019F
:102190000860084600682168084342F60801C4F256
:1021A0000001086042F61001C4F20001A068086056
:1021B00008460068A18840EA014042F61001C4F2D6
:1021C00000010860FFF738FF0125FF2042F62401D7
:1021D000C4F200010860284630BD08B50146002061
:1021E000009042F65000C4F200000090009800EB0E
:1021F000810000900098006808BD2DE9F041054677
:102200000C46002600274DB9607800F01000102819
:1022100004D1607820F010000A30607005B908E041
:102220006078FFF798FE0646A078FFF794FE064612
:1022300000BF55B1E0780004617840EA0120A17840
:102240000843217840EA413611E0E078FFF78EFE3E
:102250004FEA00486078FFF789FE48EA0028A07836
:10226000FFF784FE48EA0008207848EA4036CA2092
:1022700042F62401C4F20001086053200860FFF711
:10228000A9FE08B900271AE026F0C00020F07F4020
:1022900042F60401C4F200010860FFF7CDFE42F6E9
:1022A0000800C4F20000006800F0200030B900F01F
:1022B00000F908B9002702E0012700E00127FF200C
:1022C00042F62401C4F2000108603846BDE8F081FE
:1022D0002DE9F04105460C460026002765B942F677
:1022E0000800C4F20000006800F0400000B102E005
:1022F0000020E07000BF10E042F60800C4F20000C9
:10230000006800F0400020B12078FFF724FE064668
:1023100002E00020E07000BF00BF55B1207800044B
:10232000617840EA0120A1780843E17840EA01465B
:1023300011E02078FFF71AFE4FEA00486078FFF7B7
:1023400015FE48EA0028A078FFF710FE48EA0008CA
:10235000E07848EA0046CA2042F62401C4F20001AF
:10236000086053200860FFF735FE08B900271BE01E
:1023700047F67F70C0F27F0030404FF42051C4F226
:1023800000010860FFF758FE42F60800C4F20000A2
:10239000006800F0200030B900F08BF808B9002781
:1023A00002E0012700E00127FF2042F62401C4F2E9
:1023B000000108603846BDE8F081CA2142F62402D7
:1023C000C4F2000211605321116042F61401C4F2FC
:1023D00000010860FF2111607047F8B504460D4602
:1023E00017461E468DF802708DF801508DF800607A
:1023F0008DF8034069460020FFF7FFFEF8BDF8B5F1
:1024000004460D4617461E468DF800408DF80150D3
:102410008DF802708DF8036069460020FFF758FFC1
:10242000F8BD7CB505460C46002000F09DF8284616
:1024300000F07BF82046FFF7C0FF4FF48040FFF725
:10244000B5FD4FF48000FEF768F801218803FFF71F
:1024500040FE012000F088F84FF48000009000203A
:102460008DF8040008208DF8050001208DF8060085
:102470006846FEF758F8032040F27501C2F20001E9
:1024800008700220487088700120C8700846FFF765
:1024900099FB7CBD10B54FF48060FFF7DAFD012891
:1024A00002D18002FFF770FD4FF48000FEF735F88F
:1024B00010BD08B50022009200200021CA2242F679
:1024C0002403C4F200031A6053221A6042F60C027D
:1024D000C4F20002126822F0A00242F60C03C4F219
:1024E00000031A6000BF42F60C02C4F20002126838
:1024F00002F02001009A521C0092009AB2F5003FAF
:1025000001D00029EFD042F60C02C4F2000212689A
:1025100002F020020AB1012000E00020FF2242F672
:102520002403C4F200031A6008BDCA2142F6240243
:10253000C4F2000211605321116042F60801C4F296
:102540000001096821F0070142F60802C4F2000206
:1025500011601146096801431160FF2142F624020F
:10256000C4F200021160704718B5014600230093C1
:1025700000220020CA2342F62404C4F2000423608F
:102580005323236069B142F60803C4F200031B68B9
:1025900043F4806342F60804C4F20004236001207F
:1025A00027E042F60803C4F200031B6823F48063AB
:1025B00042F60804C4F20004236000BF42F60C0394
:1025C000C4F200031B6803F00402009B5B1C009331
:1025D000009BB3F5803F01D0002AEFD042F60C03F8
:1025E000C4F200031B6803F004030BB9002000E0F1
:1025F0000120FF2342F62404C4F20004236018BD26
:1026000008B50022009242F65002C4F20002009285
:10261000009A02EB80020092009A116008BD00B59A
:1026200087B001210220FFF71BFB01210803FFF700
:1026300049FB3820059002208DF8180000208DF805
:102640001A0003208DF8190001208DF81B0005A940
:102650004FF48060C4F20200FDF7BCFF05220321A5
:102660004FF48060C4F20200FDF7FCFF0522042154
:102670004FF48060C4F20200FDF7F4FF052211461A
:102680004FF48060C4F20200FDF7ECFF0121080363
:10269000FFF731FB00214FF48050FFF72CFB0020A7
:1026A000ADF800004FF48270ADF802000020ADF8E4
:1026B00004000220ADF806000120ADF80800400239
:1026C000ADF80A003820ADF80C000020ADF80E007F
:1026D0000720ADF8100069464FF44050C4F20100E5
:1026E00000F066F801214FF44050C4F2010000F000
:1026F00045F8FF2000F002F807B000BD10B5044611
:1027000000BF02214FF44050C4F2010000F042F833
:102710000028F6D021464FF44050C4F2010000F0EA
:1027200045F800BF01214FF44050C4F2010000F011
:1027300031F80028F6D04FF44050C4F2010000F008
:1027400032F8C0B210BD10B504464FF44050C4F288
:10275000010000884FF6C77108404FF44051C4F2A1
:1027600001010880084600882043088001214FF4B9
:102770004050C4F2010000F001F810BD21B1028800
:1027800042F04002028004E002884FF6BF731A4014
:10279000028070470246002013890B400BB10120D4
:1027A00000E00020704701468889704781817047AA
:1027B00010B50022028802F441520B884C88234352
:1027C0008C882343CC8823430C8923434C8923439F
:1027D0008C892343CC8923431A430280838B4FF295
:1027E000FF74234083830B8A038210BD10B5044617
:1027F0002046FFF783FF10BD70470CB50020019005
:1028000000904FF46050C4F20200006840F4803041
:102810004FF46051C4F20201086000BF4FF46050F1
:10282000C4F20200006800F4003000900198401CDF
:102830000190009818B90198B0F5A04FEED14FF46F
:102840006050C4F20200006800F4003010B10120B2
:10285000009001E0002000900098012863D14FF41F
:102860006150C4F20200006840F080504FF46151A2
:10287000C4F2020108604FF4E040C4F200000068B6
:1028800040F440404FF4E041C4F20001086043F6D8
:102890000800C4F20200006843F60801C4F2020115
:1028A00008600846006840F4004008600846006878
:1028B00040F4A050086045F20840C0F24070091F83
:1028C0000860081F006840F08070091F086000BFA2
:1028D0004FF46050C4F20200006800F0007000285D
:1028E000F6D040F205704FF47051C4F20201086056
:1028F00043F60800C4F20200006820F0030043F62B
:102900000801C4F2020108600846006840F00200B5
:10291000086000BF43F60800C4F20200006800F03F
:102920000C000828F6D10CBD042808D14FF0E02196
:10293000096941F004014FF0E022116107E04FF016
:10294000E021096921F004014FF0E0221161704794
:10295000704710B54EF68850CEF20000006840F483
:1029600070004EF68851CEF2000108604FF46050BE
:10297000C4F20200006840F001004FF46051C4F25C
:1029800002010860002043F60801C4F20201086059
:102990004FF46050C4F20200006820F4102020F0D0
:1029A00080704FF46051C4F20201086043F21000DD
:1029B000C2F20040091D0860081F006820F4802052
:1029C000091F0860002043F60C01C4F202010860F0
:1029D000FFF713FF4FF000604EF60851CEF20001F2
:1029E000086010BD10B501214FF48060C4F20000F2
:1029F00000F0A1F810B1012017F0DFFF01214FF422
:102A00008060C4F2000000F087F810BD7FB5054675
:102A10000C4601210220FFF73CF90295ADF8044075
:102A20000020ADF80600ADF80C0001A94FF480605D
:102A3000C4F2000000F099F8012211464FF48060C2
:102A4000C4F2000000F088F801214FF48060C4F265
:102A5000000000F064F81D208DF8000001208DF8C2
:102A6000010003208DF8020001208DF80300684664
:102A7000FFF7A8F87FBD10B501214FF40060C4F244
:102A8000000000F058F850B117F022FD40F20000AD
:102A9000C2F200000068012801D11BF0D0FC012126
:102AA0004FF40060C4F2000000F036F810BD7FB5AE
:102AB00005460C4601210420FFF7EBF80295ADF81E
:102AC00004400020ADF80600ADF80C0001A94FF459
:102AD0000060C4F2000000F048F8012211464FF4F3
:102AE0000060C4F2000000F037F801214FF40060EC
:102AF000C4F2000000F013F81E208DF80000012041
:102B00008DF8010003208DF8020001208DF80300EC
:102B10006846FFF757F87FBDCA430282704721B16C
:102B2000028842F00102028004E002884FF6FE7340
:102B30001A400280704730B502460020002300246E
:102B4000158A05EA0103958905EA010413B10CB160
:102B5000012000E0002030BD1AB183890B4383813E
:102B600002E083898B43838170470022028800231F
:102B7000C4F2010398421AD04FF48063C4F20103F7
:102B8000984214D0B0F1804F11D04FF48063C4F25A
:102B9000000398420BD04FF40063C4F20003984244
:102BA00005D04FF44063C4F20003984204D14FF6BD
:102BB0008F731A404B881A434FF48053C4F20003BA
:102BC00098420AD04FF4A053C4F20003984204D0B4
:102BD0004FF6FF431A400B891A4302804B68C362C9
:102BE0000B8803850023C4F20103984205D04FF4FB
:102BF0008063C4F20103984201D18B7A03860123DA
:102C00008382704710B540F225514FF48050C4F2D2
:102C1000010000F067F858B34FF48050C4F201008F
:102C200000F01CF9C4B240F28400C2F20000008837
:102C300000F40040E0B940F28400C2F200000088D5
:102C400000F48040A8B10A2C06D0002040F2840194
:102C5000C2F20001088038E040F28400C2F20000B5
:102C6000008840F4004040F28401C2F20001088074
:102C70002BE00D2C0CD140F28400C2F20000008841
:102C800040F4804040F28401C2F2000108801CE060
:102C900040F28400C2F200000088C0F30D0040F250
:102CA000BC11C2F200010C5440F28400C2F20000D8
:102CB0000088401C40F28401C2F2000108800846EE
:102CC0000088C72801DD0020088010BD21B182895D
:102CD00042F40052828104E082894DF6FF731A406B
:102CE0008281704770B50246002400230025002031
:102CF00040F66A16B14200D100BFC1F3421501F09F
:102D00001F03012606FA03F3012D02D196893340F1
:102D100006E0022D02D1168A334001E0968A334044
:102D20000C12012606FA04F41688344013B10CB1D3
:102D3000012000E0002070BDF0B50346002400260D
:102D40000025002040F66A17B94200D100BF18469E
:102D5000C1F3421401F01F06012707FA06F5012C02
:102D600001D10C3004E0022C01D1103000E014300D
:102D70001AB107682F43076002E00768AF43076096
:102D8000F0BD2DE9FF4705460E460024A14600BFD1
:102D9000A046B08900B100BF2C8A24F44054F088CA
:102DA00004432C82AC8924F4037424F4A054B08826
:102DB00031890843718908430443AC81AC8A24F407
:102DC0004074B0890443AC826846FEF7ADFF4FF40F
:102DD0008050C4F20100854205D04FF4A050C4F2E7
:102DE0000100854202D1DDF80C9001E0DDF8089089
:102DF000A88900F4004040B109EBC90000EB0910BC
:102E000031684900B0FBF1F707E009EBC90000EBBE
:102E1000091031688900B0FBF1F76420B7FBF0F0CE
:102E200004012009642101FB1078A88900F4004006
:102E300040B1322000EBC800B0FBF1F000F0070019
:102E4000044308E0322000EB08106421B0FBF1F0ED
:102E500000F00F0004432C81BDE8FF8701468888FD
:102E6000C0F30800704700BFFEE710B5442140F2F0
:102E7000C040C2F2000001F095FC17F08DFD40F259
:102E80000811C2F200010860002304221E2146F24C
:102E9000CD40C0F6000017F046FA40F21011C2F221
:102EA0000001086003F092FA002040F20C11C2F217
:102EB0000001087010BD2DE9F04705460F46164683
:102EC0001C46152E29D249F2E060C0F60200D0E877
:102ED00006F028460CF0A1FE814600EBD9704FEABF
:102EE000600A38460CF099FE804600EBD870AAEBD9
:102EF000600000B2208028460CF038FE814600EBCE
:102F0000D9704FEA600A38460CF030FE804600EB7C
:102F1000D870AAEB600000B2608069E100202080D8
:102F2000608065E128460CF078FE814600EBD970A0
:102F30004FEA600A38460CF070FE804600EBD8700D
:102F4000AAEB600000B220800020608050E128469B
:102F50000CF063FE804638460CF05FFEA8EB0000E4
:102F600000B220800020608042E1002020802846BE
:102F70000CF0FCFD804638460CF0F8FDA8EB000094
:102F800000B2608034E128460CF047FE814600EB39
:102F9000D9704FEA600A38460CF03FFE804600EBDD
:102FA000D870AAEB600000B2208028460CF0DEFD4D
:102FB000804638460CF0DAFDA8EB000000B26080D5
:102FC00016E128460CF029FE804638460CF025FE16
:102FD000A8EB000000B2208028460CF0C7FD804618
:102FE00038460CF0C3FDA8EB000000B26080FFE0A3
:102FF0000020208028460CF0B9FD814600EBD970F6
:103000004FEA600A38460CF0B1FD804600EBD870FC
:10301000AAEB600000B26080EAE028460CF0FDFDFB
:10302000804638460CF0F9FDA8EB000000B2208085
:1030300028460CF09BFD814600EBD9704FEA600AF0
:1030400038460CF093FD804600EBD870AAEB600088
:1030500000B26080CCE00020208038460CF086FD75
:10306000404200B26080C3E028460CF0D6FD8146A5
:1030700000EBD9704FEA600A38460CF0CEFD80466E
:1030800000EBD870AAEB600000B2208038460CF04C
:103090006DFD404200B26080AAE028460CF0BDFD04
:1030A000804638460CF0B9FDA8EB000000B2208045
:1030B00038460CF05BFD404200B2608098E087E04B
:1030C0006FE067E054E03AE030E01FE007E0FFE740
:1030D0000020208028460CF049FD608088E02846CA
:1030E0000CF09BFD814600EBD9704FEA600A384630
:1030F0000CF093FD804600EBD870AAEB600000B2A4
:10310000208028460CF032FD608071E028460CF0EB
:1031100084FD804638460CF080FDA8EB000000B22C
:10312000208028460CF022FD608061E038460CF0DB
:1031300074FD404200B220800020608058E0384694
:103140000CF06BFD404200B2208028460CF00EFDD2
:10315000814600EBD9704FEA600A38460CF006FD54
:10316000804600EBD870AAEB600000B260803FE0C0
:1031700038460CF052FD404200B2208028460CF048
:10318000F5FC804638460CF0F1FCA8EB000000B2DC
:1031900060802DE028460CF040FD208000206080FB
:1031A00026E028460CF039FD208028460CF0DEFC95
:1031B000814600EBD9704FEA600A38460CF0D6FC25
:1031C000804600EBD870AAEB600000B260800FE090
:1031D00028460CF022FD208028460CF0C7FC8046D3
:1031E00038460CF0C3FCA8EB000000B2608000BFC2
:1031F00000BF20882988084400B220806088698840
:10320000084400B26080BDE8F08730B50346B1F9EC
:103210000040B2F90050AC4202DDB1F9004001E0DB
:10322000B2F900401C80B1F90240B2F90250AC4240
:1032300002DDB1F9024001E0B2F902405C80B1F96F
:103240000440B2F90450AC4202DAB1F9044001E0A2
:10325000B2F904409C80B1F90640B2F90650AC4284
:1032600002DAB1F9064001E0B2F90640DC80012043
:10327000B3F90040B3F90450AC4205DCB3F90240A5
:10328000B3F90650AC4200DD002030BDF8B504466D
:103290000D4616460027B4F90000B5F90010884223
:1032A00012DBB4F90200B5F9021088420CDBB4F964
:1032B0000400B5F90410884206DCB4F90600B5F93B
:1032C0000610884200DC01270FB90020F8BD0EB9B6
:1032D0000120FBE72088ADF800006088ADF802000F
:1032E00032466946284600F04CF808B90020EDE760
:1032F000A088ADF800006088ADF80200324669464B
:10330000284600F03EF808B90020DFE72088ADF835
:103310000000E088ADF8020032466946284600F019
:1033200030F808B90020D1E7A088ADF80000E088A7
:10333000ADF8020032466946284600F022F808B986
:103340000020C3E70120C1E70246B2F90000B1F94D
:103350000430984213DCB2F90400B1F9003098420D
:103360000DDBB2F90200B1F90630984207DCB2F980
:103370000600B1F90230984201DB012070470020BD
:10338000FCE72DE9FC5F05460E4614464FF0000AA7
:10339000B6F90000B5F90010884213DBB6F9000059
:1033A000B5F9041088420DDCB6F90200B5F9021037
:1033B000884207DBB6F90200B5F90610884201DC45
:1033C0004FF0010ABAF1000F02D10020BDE8FC9FC6
:1033D000002C01DC0120F9E728460CF01EFC834696
:1033E00000EBDB70471028460CF0C0FB834600EB77
:1033F000DB704FEA6008474501DA384600E0404696
:1034000081464C4500DD4C462888ADF800002888F0
:10341000204400B2ADF804006888ADF80200688866
:10342000204400B2ADF80600002231466846FFF79E
:10343000A8FF80B1BDF80400204400B2ADF804003C
:10344000BDF80600204400B2ADF8060031466846DB
:1034500015F058FFBAE7E888001B00B2ADF802008B
:10346000E888ADF80600002231466846FFF789FF7C
:1034700080B1BDF80400204400B2ADF80400BDF8EE
:103480000200001B00B2ADF802003146684615F09C
:1034900039FF9BE7A888001B00B2ADF80000A888A0
:1034A000ADF80400002231466846FFF76AFF80B19C
:1034B000BDF80000001B00B2ADF80000BDF802002E
:1034C000001B00B2ADF802003146684615F01AFF45
:1034D0007CE76888ADF802006888204400B2ADF847
:1034E0000600002231466846FFF74BFF80B1BDF869
:1034F0000000001B00B2ADF80000BDF8060020443B
:1035000000B2ADF806003146684615F0FBFE5DE7F7
:1035100001205BE710B5B1F90030B2F90040A342D9
:1035200002DAB1F9003001E0B2F900300380B1F9FC
:103530000230B2F90240A34202DAB1F9023001E0EE
:10354000B2F902304380B1F90430B2F90440A34229
:1035500002DDB1F9043001E0B2F904308380B1F941
:103560000630B2F90640A34202DDB1F9063001E0AF
:10357000B2F90630C38010BD2DE9FF4F87B01C465D
:10358000DDE91478B8F1020F02DA0BB0BDE8F08F74
:1035900007B9FAE702F054F8054628460DF0E3FEB5
:1035A000814609F11006D9F808000690686A10B142
:1035B0002846696A884704A8DDE90712FFF725FE57
:1035C0008346BBF1000F00D1DFE7BDF81000318862
:1035D000401A00B2ADF81000BDF812007188401A10
:1035E00000B2ADF81200BDF814003188401A00B2E4
:1035F000ADF81400BDF816007188401A00B2ADF89D
:103600001600CCB1287A00F00100A8B904A80CF08B
:10361000DAFA03904FF0000A0AE014F80A00802852
:1036200001DDFF2000E0002004F80A000AF1010A91
:1036300003988245F1DB00BF686948B1CDE9008499
:10364000029704AA3046099B06990AF018F816E07A
:10365000169848B9CDE90084029704AA3046099B20
:10366000069909F0F7FD0AE01698CDE90084CDE946
:10367000027004AA3046099B069909F03AFD00BF82
:1036800083E72DE9FF4F89B017461C46DDE916890F
:10369000B9F1020F02DA0DB0BDE8F08FB8F1000FFA
:1036A00000D1F8E707A8DDE90912FFF7AEFD0690A3
:1036B000069800B9EFE701F0C3FF054628460DF074
:1036C00052FE82460AF11006DAF808000590686A90
:1036D00010B12846696A8847BDF81C003188401A35
:1036E00000B2ADF81C00BDF81E007188401A00B28F
:1036F000ADF81E00BDF820003188401A00B2ADF8C8
:103700002000BDF822007188401A00B2ADF82200F6
:10371000CCB1287A00F00100A8B907A80CF053FA40
:1037200004904FF0000B0AE014F80B00802801DD34
:10373000FF2000E0002004F80B000BF1010B0498BF
:103740008345F1DB00BF686950B1CDE90079CDE96F
:10375000024807AA30460A9B059917F0A5FE18E013
:10376000189850B9CDE90079CDE9024807AA30464A
:103770000A9B059917F09FFC0BE01898CDE900799A
:10378000CDE90248049007AA30460A9B059917F034
:10379000D6FB00BF7FE72DE9FF5F814617F0FCF8FD
:1037A00003900020029040F2B001C2F20001D9F86B
:1037B0000C0008600021484616F0E6FF40F2B00019
:1037C000C2F200000068406C98B940F2B000C2F24A
:1037D00000000068D0F8800120F47F0020F04070E5
:1037E00040F2B001C2F200010968C1F88001BDE8F1
:1037F000FF9F16F0BDF815F0CBFF40F2B000C2F20B
:1038000000000068D0F88001C0F30940002874D09F
:1038100040F2B000C2F2000000680DF04DFE00283A
:103820006DD040F2B000C2F200000068406900288C
:1038300065D140F2B000C2F2000000680DF093FDC7
:10384000054616F0FEF900BFA8690028FCD1002744
:1038500040F2B001C2F200010968B1F9001048005D
:1038600001F0DEF80746D5F808A02968A868884264
:1038700001D1686800E02868019040F2B000C2F20F
:10388000000000680DF085FD064600245AE040F275
:10389000B000C2F20000006800F5B170005D68BBC6
:1038A00040F2B000C2F200000068623030F934101B
:1038B00040F2B000C2F200000068623000EBC400C9
:1038C000B0F9020006FB00104FEA400840F2B001D8
:1038D000C2F200010968623101EBC4000CF06CF91E
:1038E0004000009040F2B000C2F200000068623078
:1038F00000EBC400B0F902B015E076E020E031E062
:10390000019800EB08013846009A01F0AAF90AEB89
:1039100008003946009A01F0A4F908EB46080BF1BB
:1039200001000FFA80FB40F2B000C2F20000006814
:10393000623000EBC400B0F906005845E0DA00BF81
:10394000601C84B240F2B000C2F200000068D0F8FF
:103950008001C0F30940A04299DC17B1384601F05C
:1039600029F900BF4FF4807140F2B000C2F20000AC
:103970000068623001F027FB202140F2B000C2F263
:103980000000006800F5B17001F01DFB40F2B000CE
:10399000C2F200000068D0F8800120F47F0020F01F
:1039A000407040F2B001C2F200010968C1F8800124
:1039B000039816F0E4FF029040F2B000C2F200005B
:1039C0000068806988B140F2B000C2F2000000686F
:1039D000836940F2AC00C2F20000026840F2B0001D
:1039E000C2F2000002990068984700F0E3FF00F07F
:1039F00002F800BFFBE610B540F22C10C2F2000046
:103A0000006860B140F22C10C2F20000006813F0B0
:103A100010F8002040F22C11C2F20001086010BD25
:103A200010B5442140F2A840C2F2000000F0BAFEF6
:103A300010BD10B5182140F2CC40C2F2000000F0D9
:103A4000B1FE10BD2DE9FF4F8BB004469A46199D7B
:103A5000BAF1000F11D11898B0F5807F0DD1002078
:103A6000208060800C98401E00B2A0800D98401EFF
:103A700000B2E0800FB0BDE8F08FB5F90000404221
:103A8000189948430121C1EB202000B22080B5F9EC
:103A900002004042189948430121C1EB202000B2A6
:103AA0006080B5F900100C98401A1899484302211B
:103AB00001EB202000B2A080B5F902100D98401A49
:103AC00018994843022101EB202000B2E080BAF1AE
:103AD000000F14D120882988084400B22080608813
:103AE0006988084400B26080A0882988084400B230
:103AF000A080E0886988084400B2E080BAE70A2024
:103B00009AFBF0F00A900A98401C09900A9800EB82
:103B10008000AAEB400B0A9800B202F089FA0890E4
:103B2000099800B202F084FA07900A985A3000B25D
:103B300002F07EFA069009985A3000B202F078FA44
:103B40000590CBF10A0108984143079800FB0B1040
:103B50000A2190FBF1F6CBF10A0106984143059842
:103B600000FB0B100A2190FBF1F776117F11B4F9DD
:103B70000080B4F9029007FB08F006FB19002988C1
:103B800001EBA02000B2ADF8100006FB08F007FB27
:103B90000900698801EBA02000B2ADF81200B4F969
:103BA0000480B4F9029007FB08F006FB190029888D
:103BB00001EBA02000B2ADF80C0006FB08F007FBFB
:103BC0000900698801EBA02000B2ADF80E00B4F93D
:103BD0000080B4F9069007FB08F006FB190029885D
:103BE00001EBA02000B2ADF8080006FB08F007FBCF
:103BF0000900698801EBA02000B2ADF80A00B4F911
:103C00000480B4F9069007FB08F006FB1900298828
:103C100001EBA02000B2ADF8040006FB08F007FBA2
:103C20000900698801EBA02000B2ADF80600BDF9DB
:103C30000800BDF91010884202DABDF9080001E061
:103C4000BDF91000BDF90410BDF90C20914202DA53
:103C5000BDF9041001E0BDF90C1088420BDABDF982
:103C60000800BDF91010884202DABDF908000DE025
:103C7000BDF910000AE0BDF90400BDF90C1088423E
:103C800002DABDF9040001E0BDF90C002080BDF9A5
:103C90000800BDF91010884202DDBDF9080001E0FE
:103CA000BDF91000BDF90410BDF90C20914202DDF0
:103CB000BDF9041001E0BDF90C1088420BDDBDF91F
:103CC0000800BDF91010884202DDBDF908000DE0C2
:103CD000BDF910000AE0BDF90400BDF90C108842DE
:103CE00002DDBDF9040001E0BDF90C00A080BDF9C2
:103CF0000A00BDF91210884202DABDF90A0001E09B
:103D0000BDF91200BDF90610BDF90E20914202DA8C
:103D1000BDF9061001E0BDF90E1088420BDABDF9BD
:103D20000A00BDF91210884202DABDF90A000DE05E
:103D3000BDF912000AE0BDF90600BDF90E10884277
:103D400002DABDF9060001E0BDF90E006080BDF9A0
:103D50000A00BDF91210884202DDBDF90A0001E037
:103D6000BDF91200BDF90610BDF90E20914202DD29
:103D7000BDF9061001E0BDF90E1088420BDDBDF95A
:103D80000A00BDF91210884202DDBDF90A000DE0FB
:103D9000BDF912000AE0BDF90600BDF90E10884217
:103DA00002DDBDF9060001E0BDF90E00E08000BFB4
:103DB00060E62DE9F74F86B0044620680590B4F917
:103DC00008100798A0EB0108B4F90A100898A0EBB6
:103DD0000109E089B0F5807F13D1206B00FB08F06A
:103DE000E16A01FB1901606A00EBA10BE06A00FBCC
:103DF00008F0216B01FB0901A06A00EBA10004900F
:103E00002FE0A08980B9A06B00FB08F04FEA601892
:103E1000A06B00FB09F04FEA6019606A00EB080B29
:103E2000A06A484404901CE0A06B00FB08F04FEA35
:103E30006018A06B00FB09F04FEA6019206B00FBD3
:103E400008F0E16A01FB1901606A00EBA12BE06A4E
:103E500000FB08F0216B01FB0901A06A00EBA12027
:103E600004904FEA2B2604980712B4F90400B042DC
:103E700003DC002009B0BDE8F08F002E01DA00203D
:103E8000F8E7B4F90600B84201DC0020F2E7002FA1
:103E900001DA0020EEE73420005DC0F3800050B36B
:103EA0003420005DC0F3400078B90225B4F9040065
:103EB0007843684306FB050A059800EB0A012A4689
:103EC00004F1140001F021F82CE00325B4F90400FA
:103ED0007843684306FB050A6A1E059800EB0A0151
:103EE00004F1140001F011F80AEB0500401E0599D9
:103EF000095CA17516E04FF0000A0025208A0346F0
:103F00003AB231B2019004F118000FF051FC029066
:103F1000BDF80800A0823AB231B204F118000FF0E7
:103F2000ADFBA0753420005D00F0010078B14FF2C8
:103F30002040C0F601000068029002980190A08A1B
:103F4000BDF80410884201D1002093E700BFE07C57
:103F500008B901208EE70FFA8BF1A187049801B20E
:103F6000E18731B24020015339B242200153C4F8F5
:103F700044A084F84850204600F003F803900398CA
:103F800078E72DE9F04F8DB00446D4F8009094F80E
:103F90003C000C9094F83E000B900C9870280BDAC3
:103FA0004FF0FF35B4F940002844002800DA00251E
:103FB0000C988030C7B213E00C9890280EDD0125D4
:103FC000B4F940002844B4F90410884200DB00250D
:103FD0000C98C0F1FF008030C7B201E00025FF2738
:103FE0000B9870280CDA4FF0FF36B4F942003044D9
:103FF000002800DA00260B98803000F0FF0815E05A
:104000000B9890280FDD0126B4F942003044B4F932
:104010000610884200DB00260B98C0F1FF008030BC
:1040200000F0FF0802E000264FF0FF08A08A0A9087
:10403000A07D069000200590049003903420005D40
:10404000C0F3800000285BD094F84800626C00FB4D
:10405000052000EB0901022209A800F062FFA288F6
:1040600094F8480012FB00F2606C02FB060000EBC3
:104070000901022208A800F054FFA28894F8480021
:1040800012FB00F2606C02FB060294F8480000FB91
:10409000052000EB0901022207A800F042FF3420AE
:1040A000005DC0F3400000287ED094F84800616CA9
:1040B00000FB05110844401E19F800000590A18876
:1040C00094F8480011FB00F1606C01FB060194F8C4
:1040D00048000844401E19F800000490A18894F894
:1040E000480011FB00F1606C01FB060194F84800E8
:1040F00000FB05110844401E19F80000039053E02E
:10410000208A0090B4F942204020005B284401B28C
:1041100004F11800009B0FF04BFB0990208A0090DF
:104120004220005B304402B2B4F9401004F11800A0
:10413000009B0FF03DFB0890208A00904220005B1E
:10414000304402B24020005B284401B204F1180060
:10415000009B0FF02DFB07903420005DC0F3400062
:1041600010B3B4F942204020005B284401B204F1AE
:1041700018000FF083FA05904220005B304402B231
:10418000B4F9401004F118000FF078FA04904220BE
:10419000005B304402B24020005B284401B204F1CD
:1041A00018000FF06BFA0390BA46BB463420005D4E
:1041B000C0F34000E0B306987843C7F1FF0C059BBD
:1041C00003FB0C00C0F3072104987843C7F1FF0CF0
:1041D000039B03FB0C00C0F3072201FB08F0C8F1AE
:1041E000FF0302FB0300030AA375022905DC022A70
:1041F00003DC00200DB0BDE8F08F022901DC4FF098
:104200000008022A01DC4FF0FF080698022801DCB2
:104210004FF0000A0598022801DC4FF0FF0A0498CD
:10422000022801DC4FF0000B0398022803DC00E0B9
:1042300002E04FF0FF0B03E0BA46BB46FF21A17539
:10424000BAF1000F02D1099802900BE0BAF1FF0F0A
:1042500002D10A98029005E05246DDE909100BF000
:10426000B1FE0290BBF1000F02D1079801900BE064
:10427000BBF1FF0F02D10898019005E05A46DDE935
:1042800007100BF09FFE0190B8F1000F03D1BDF8AD
:104290000400A0820FE0B8F1FF0F03D1BDF80800C1
:1042A000A08208E04246DDE901100BF08BFE009091
:1042B000BDF80000A08201209CE72DE9F05F0446D4
:1042C000B4F9080001026162B4F90A000102A162B6
:1042D000B4F90C000A2190FBF1F56F1CB4F90C0045
:1042E00005EB8501A0EB4106684200B201F0A0FE9B
:1042F0008046784200B201F09BFE8146C5F15A002B
:1043000000B201F095FE8246C7F15A0000B201F0FA
:104310008FFE8346C6F10A0000FB08F009FB060089
:104320000A2190FBF1F1E162C6F10A0000FB0AF0FC
:104330000BFB06000A2190FBF1F12163E06A4111B9
:10434000E162206B41112163A07C0FF0B9FB3421A5
:10435000095D60F3000134200155A07C0FF096FB4D
:104360003421095D60F3410134200155A07C04280B
:1043700005D0A07C052802D0A07C062807D13420D7
:10438000005D20F00400001D3421085505E03420B4
:10439000005D20F004013420015521682162A069EC
:1043A00020F0E000A061A17CA06961F30400A0619D
:1043B000A188A06961F39420A061E188A06961F3FC
:1043C0005F50A061E08900EBD071491001F5001148
:1043D00091FBF0F2A263FF21A175208AA082BDE8C3
:1043E000F09F2DE9F35F0746002540F2BC00C2F2C2
:1043F0000000008810B90020BDE8FC9F40F21410B6
:10440000C2F200000668002416E004EBC40006EBCC
:104410008000006A0121C8F2000188420ADD04EB35
:10442000C40006EB8000006A401E04EBC40106EBEA
:1044300081010862601C84B240F2BC00C2F200003C
:1044400000888442E1DB002442E04FF0000A04EBE4
:10445000C40106EB8101486810F0D5FF8146B9F12F
:10446000000F12D104EBC40006EB80004068B84294
:1044700019D104EBC40006EB80000089BDF80410DC
:10448000884210D14FF0010A0DE0B9F1010F0AD1B5
:1044900004EBC40106EB810148683946FBF782FF53
:1044A00008B94FF0010ABAF1000F0FD004EBC400B5
:1044B00006EB8005296A686908442862286AB0F515
:1044C0007A7F02DD4FF47A70286208E0601C84B2C3
:1044D00040F2BC00C2F2000000888442B5DB00BF9D
:1044E0000DB1284688E7354601240DE004EBC400F1
:1044F00006EB8000006A296A884203DA04EBC400F4
:1045000006EB8005601C84B240F2BC00C2F20000E1
:1045100000888442EADB686810B128460FF0D3FFB8
:1045200016F03AFA83460020686139462846019A17
:1045300010F037F88046B8F1000F0FD128460FF081
:10454000C2FF2021284600F03EFD2421284600F02D
:104550003AFD4FF00040286200204DE7002028621D
:10456000686918B9584616F00AFA6861686908B9A6
:104570000120686128463FE710B5102140F2D8407D
:10458000C2F2000000F00EF90FF0B1FF044684B94A
:1045900000BF20460CF0B6FD48B92246002349F280
:1045A0007050C0F602000CF0B3FD00BFFEE700BF84
:1045B00010BD43F69B41C0F60101204610F05FF8A4
:1045C00044F26511C0F60101204610F05AF844F299
:1045D000FF31C0F60101204610F055F843F6614165
:1045E000C0F60101204610F048F800BFE0E710B522
:1045F0000021084610F03AFF10BD2DE9FF410446A6
:104600000F4614B90CF0B2FE04460CB9BDE8FF81A8
:1046100047B9D4F8800120F47F0020F04070C4F83E
:104620008001F3E70020ADF80800ADF80A0020464D
:104630000CF0AFFE401E00B2ADF80C0020460CF0AE
:104640001DFF401E00B2ADF80E0002AA39466846B2
:10465000FEF7DBFD0646002E4DD0206918B16946F5
:1046600020462269904700250BE004F1620000EB30
:10467000C50100226846FEF709FE00B1C6E7681CC6
:1046800085B2D4F88001C0F30940A842EDDCD4F82B
:104690008001C0F3094020280BDAD4F88011C1F35F
:1046A000094204F1620101EBC20069460BF0E7F92F
:1046B00012E0D4F8800120F47F0020F04070C4F8AC
:1046C0008001D4F88011C1F3094204F1620101EBC9
:1046D000C20002A90BF0D3F9D4F88001000C401CF1
:1046E000D4F8801160F31941C4F880110321606B84
:1046F00016F04AF800BF00BF88E72DE9F0410746F1
:104700000C4615461E462946384600F00EF9AEB155
:1047100000222946204616F0C9FF29462046626835
:1047200016F0B6FF606820B12A462046616816F090
:10473000BDFF6560A068B0B9A56014E029462046B9
:10474000A26816F0B3FF00222946204616F0A0FF0B
:10475000A06820B12A462046A16816F099FFA560FE
:10476000606800B96560BDE8F0810146002001B1D4
:104770004868704702460AB9002070470B46106827
:10478000001D03441868F8E702460AB90020704784
:104790000B46106803441868F9E70146002001B190
:1047A00088687047002242608260CA1C22F00301C0
:1047B0000160704770B50446216801F1080012F0ED
:1047C000C2F80546A5B100222946204616F06EFF24
:1047D00029462046626816F05BFF606820B12A46D1
:1047E0002046616816F062FF6560A06800B9A560A8
:1047F000284670BD2DE9F04106460D4606B115B9B3
:104800000020BDE8F0813046FFF7AFFFA84206D197
:104810003046FFF7CFFF044624BB0020F1E73168A4
:1048200001F1080012F08FF804460CB90020E8E707
:1048300029463046FFF7A8FF07462246394630464C
:1048400016F026FF3A462146304616F02FFF224644
:104850002946304616F02AFF2A462146304616F0F1
:1048600017FF00BF2046CCE770B50446216801F170
:10487000080012F068F80546A5B100222946204636
:1048800016F006FF29462046A26816F00FFFA06822
:1048900020B12A462046A16816F0FAFEA56060689D
:1048A00000B96560284670BD014609B9012070470E
:1048B000486818B9886808B90120F8E70020F6E7C9
:1048C0002DE9F04107460D461646B54201D1BDE837
:1048D000F0812EB131463846FFF756FF044603E01B
:1048E0003846FFF75AFF0446A54200D1EFE72946B4
:1048F000384600F01AF82A462146384616F0C8FE17
:1049000022462946384616F0D1FE2A463146384618
:1049100016F0CCFE32462946384616F0B9FE06B9E6
:10492000BD6004B97D6000BFD1E72DE9F0410446C8
:104930000D462046FFF719FFA8420FD12946204611
:10494000FFF718FF6060606810B90020A0602FE0DA
:1049500000222046616816F0A9FE29E02046FFF7F4
:104960001CFFA8420FD129462046FFF70DFFA0608B
:10497000A06810B9002060601AE000222046A168FB
:1049800016F086FE14E029462046FFF7FDFE064697
:1049900029462046FFF7EEFE07463A4631462046B6
:1049A00016F076FE32463946204616F07FFE00BFEE
:1049B000BDE8F08110B5002409E0002040F23C1170
:1049C000C2F2000101EBC4018871601CC4B2022C68
:1049D000F3D3002421E040F2F040C2F2000050F88E
:1049E0003400C0B140F2F041C2F2000151F834008D
:1049F00012F01FF8002040F2F041C2F2000141F82D
:104A0000340001EBC401887140F2F041C2F20001B0
:104A100001EBC4018880601CC4B2102CDBDB10BD2C
:104A20002DE9F041054615B90020BDE8F081102DB3
:104A30001ED800241AE040F23C10C2F2000000EB45
:104A4000C400807900F0010070B9012040F23C11EF
:104A5000C2F2000101EBC401887140F23C10C2F2C5
:104A6000000050F83400E0E7601CC4B2022CE2D32E
:104A70004FF0FF36002441E040F2F040C2F2000067
:104A800000EBC400807900F0010018BB40F2F04058
:104A9000C2F2000000EBC4008088A8422CD340F290
:104AA000F040C2F2000000EBC4008088A8420ED1A2
:104AB000012040F2F041C2F2000101EBC401887113
:104AC00040F2F040C2F2000050F83400ADE7002E92
:104AD00001DA66B210E040F2F040C2F2000000EBF2
:104AE000C400808840F2F041C2F2000101EBC6012F
:104AF0008988884200DA66B2601CC4B2102CBBDB25
:104B0000002E0EDB012040F2F041C2F2000101EB69
:104B1000C601887140F2F040C2F2000050F8360041
:104B200083E7002439E040F2F040C2F2000000EBDD
:104B3000C400807900F0010068BB40F2F041C2F28D
:104B4000000151F83400294611F0BAFF074657B961
:104B500000BF0022134649F29450C0F602000CF048
:104B6000D7FA00BFFEE7012040F2F041C2F2000197
:104B700001EBC401887140F2F041C2F2000101EB87
:104B8000C4018D8040F2F040C2F2000040F8347061
:104B900050F8340049E7601CC4B2102CC3DB00BFDE
:104BA0000022134649F2E850C0F602000CF0B0FAB9
:104BB00000BFFEE70146002012E040F23C12C2F2C4
:104BC000000252F830208A4208D1002240F23C1301
:104BD000C2F2000303EBC0039A717047421CD0B2CB
:104BE0000228EAD3002012E040F2F042C2F20002B2
:104BF00052F830208A4208D1002240F2F043C2F23B
:104C0000000303EBC0039A71E7E7421CD0B21028FF
:104C1000EADB00BFE1E7014609B90020704740F236
:104C20003410C2F20000814201D10020F6E70A1FD1
:104C300010684008F2E740F21061C2F2000140F251
:104C40003012C2F20002116011460868016821F0BA
:104C50000101016047F6FC72016862F35F010160C7
:104C600070472DE9F0410F46154601463A4601F0DE
:104C7000030602F0030CB4457DD0C2E092F8008038
:104C800081F80080491C521C92F8008081F8008055
:104C9000491C521C92F8008081F80080491C521C6B
:104CA00092F8008081F80080491C521C92F8008024
:104CB00081F80080491C521C92F8008081F8008025
:104CC000491C521C92F8008081F80080491C521C3B
:104CD00092F8008081F80080491C521C92F80080F4
:104CE00081F80080491C521C92F8008081F80080F5
:104CF000491C521C92F8008081F80080491C521C0B
:104D000092F8008081F80080491C521C92F80080C3
:104D100081F80080491C521C92F8008081F80080C4
:104D2000491C521C92F8008081F80080491C521CDA
:104D300092F8008081F80080491C521C92F8008093
:104D400081F80080491C521C92F8008081F8008094
:104D5000491C521C92F8008081F80080491C521CAA
:104D600092F8008081F80080491C521C92F8008063
:104D700081F8008000E053E0491C521C92F800804A
:104D800081F80080491C521C92F8008081F8008054
:104D9000491C521C92F8008081F80080491C521C6A
:104DA00092F8008081F80080491C521C92F8008023
:104DB00081F80080491C521C92F8008081F8008024
:104DC000491C521C92F8008081F80080491C521C3A
:104DD00092F8008081F80080491C521C92F80080F3
:104DE00081F80080491C521C92F8008081F80080F4
:104DF000491C521C92F8008081F80080491C521C0A
:104E0000203D202D3FF63AAF06E092F8008081F871
:104E10000080491C521C6D1E002DF6D1BDE8F081AA
:104E20006EB1C6F1040607E092F8008081F80080B8
:104E3000491C521C761E6D1E0EB1002DF4D10B467E
:104E4000144630E0D4F80080C3F800801B1D241DF8
:104E5000D4F80080C3F800801B1D241DD4F8008006
:104E6000C3F800801B1D241DD4F80080C3F8008007
:104E70001B1D241DD4F80080C3F800801B1D241DB9
:104E8000D4F80080C3F800801B1D241DD4F80080D6
:104E9000C3F800801B1D241DD4F80080C3F80080D7
:104EA0001B1D241D203D202DCCD806E0D4F8008009
:104EB000C3F800801B1D241D2D1F042DF6D8194694
:104EC000224606E092F8008081F80080491C521CBE
:104ED0006D1E002DF6D100BFA0E730B504460B468D
:104EE00004E01D782570641C5B1C521E002AF8D15A
:104EF00030BD30B504460B4604E01D782570641CB7
:104F00005B1C521E002AF8D130BD30B504460B465A
:104F100004E01D782570641C5B1C521E002AF8D129
:104F200030BD30B504460B4604E01D782570641C86
:104F30005B1C521E002AF8D130BD30B504460B462A
:104F400004E01D782570641C5B1C521E002AF8D1F9
:104F500030BDF0B506460B46344604F003054DB1AE
:104F6000C5F1040503E02370641C521E6D1E0DB1D3
:104F7000002AF8D103EB032707EB034707EB036194
:104F8000204610E00160001D0160001D0160001D51
:104F90000160001D0160001D0160001D0160001D19
:104FA0000160001D203A202AECD802E00160001DBB
:104FB000121F042AFAD8044602E02370641C521E11
:104FC000002AFAD1F0BD30B50446224602F00303B0
:104FD00053B1C3F1040304E000251570521C491EAF
:104FE0005B1E0BB10029F7D1104611E000250560CA
:104FF000001D0560001D0560001D0560001D0560A9
:10500000001D0560001D0560001D0560001D2039A4
:105010002029EBD803E000250560001D091F0429A5
:10502000F9D8024603E000251570521C491E0029DC
:10503000F9D130BD30B50446224602F0030353B126
:10504000C3F1040304E0FF251570521C491E5B1ECA
:105050000BB10029F7D1104612E04FF0FF35056083
:10506000001D0560001D0560001D0560001D056038
:10507000001D0560001D0560001D0560001D203934
:105080002029EAD804E04FF0FF350560001D091F14
:105090000429F8D8024603E0FF251570521C491E6A
:1050A0000029F9D130BD2DE9F04107460D46002415
:1050B0000CE02146384612F0F9FD064606B907E035
:1050C000706865F3CB207060601CC4B2402CF0DBCC
:1050D00000BF40240CE02146384612F0E7FD0646AA
:1050E00006B907E0706865F3CB207060601CC4B23D
:1050F000FF2CF0DB00BFBDE8F0812DE9FE4F054637
:105100000E46144627464FEA27294FF0000AA846C4
:1051100026E03146404612F0C9FD00903146404637
:1051200012F01CFD834607EB0B2084B201AA214636
:10513000009800F0FBFB8246BAF1010F04D1BDF8E4
:1051400004100846BDE8FE8F09F0800000B90AE0AF
:105150000EB1002604E0404612F0BBFC804600BFC2
:10516000B8F1000FD5D100BF24F4FE44292C02D0A1
:105170002A2C0BD100E000BF4FF21C40C0F601000A
:1051800000680090BDF800100846DBE700200290A0
:10519000BDF808100846D5E72DE9FE4F06460F4634
:1051A0001546A8464FEA2820029000200090B146FC
:1051B00013E13946484612F079FD0446A088C0F351
:1051C000C020002874D1207900F03F0000286FDD56
:1051D000A088C0F3802028B925F4FE42394648460D
:1051E00019F01EFF4FF0000B25F4FE4030286AD066
:1051F00024DC112875D010DC05285CD006DC0128E1
:1052000070D0022845D0042849D153E0062850D058
:10521000072851D01028F7D189E0162871D006DC74
:1052200012286FD013286ED01528EDD189E01728E9
:105230006AD0182869D02028E6D190E0602873D081
:1052400010DC402856D006DC312843D032286CD000
:105250003328D9D147E0422868D050285DD054285F
:10526000D2D182E048F28102811A904219D009DC41
:1052700072287CD0912875D0A0F500408038002895
:10528000C2D10DE0012979D002296FD01F297CD12C
:1052900067E0A088C0F3803008B14FF0010B74E0E4
:1052A00000BF6068C0F3407008B14FF0010B6CE0C4
:1052B00071E000BF00BF00BFA088C0F3C03008B1DC
:1052C0004FF0010B61E06068C0F3405008B14FF04F
:1052D000010B5AE06068C0F3805008B14FF0010B39
:1052E00053E025E012E06068C0F3C05008B14FF011
:1052F000010B4AE06068C0F3006008B14FF0010B99
:1053000043E01FE015E015E01DE01DE0A088C0F3BC
:10531000003008B14FF0010B37E06068C0F38060E7
:1053200008B14FF0010B30E01EE019E01BE000BFB8
:1053300000BF00BF6068C0F3004008B14FF0010B30
:1053400023E000BF00BF00BF6068C0F3404008B169
:105350004FF0010B19E00AE004E00FE006E000BFA7
:1053600000BF00BF00BF00BF00BF00BF00BF60683C
:10537000C0F3804008B14FF0010B06E06068C0F355
:10538000807008B14FF0010B00BF00BFBBF1000FF0
:1053900000D026E000BF3946484612F0DFFB8246C7
:1053A00008EB0A2085B201AA2946204600F00AFB34
:1053B00000900098012803D1BDF90400BDE8FE8FDC
:1053C000029800F0800000B90BE00FB1002704E064
:1053D000484612F07EFB814600BFB9F1000F7FF412
:1053E000E8AE00BF25F4FE45222D10D004DC032DCD
:1053F00009D0072D10D10CE0312D02D0C02D0BD1DA
:1054000003E00F20DAE70320D8E70720D6E7FF20E4
:10541000D4E74FF48070D1E70020CFE72DE9FE4FAD
:1054200006460F461446A0464FEA28200290002068
:105430000090B14668E03946484612F037FC054610
:10544000A888C0F3C02000283DD1287900F03F0093
:10545000002838DDA888C0F3802028B924F4FE4253
:105460003946484619F0DCFD4FF0000B24F4FE40AD
:105470002C280DD0A0F500400C3810B1A1281CD16B
:1054800014E0A888C0F3403008B14FF0010B14E0DD
:105490006868C0F3005010B1FF20BDE8FE8F686857
:1054A000C0F3C04008B14FF0010B06E06868C0F3DC
:1054B000007008B14FF0010B00BF00BFBBF1000F3F
:1054C00000D024E000BF3946484612F047FB824630
:1054D00008EB0A2084B201AA2146284600F0BEFA51
:1054E00000900098012802D19DF80400D5E70298A9
:1054F00000F0800000B90AE00FB1002704E0484640
:1055000012F0E7FA814600BFB9F1000F93D100BF56
:1055100024F4FE442C2C06D06D2C06D0A4F50040BB
:10552000AD3820B900E000BF00BF0020B5E7FF2084
:10553000B3E72DE9FE4F06460F461446A0464FEA54
:105540002820029000200090B14660E0394648468D
:1055500012F0ACFB0546A888C0F3C020A0BB287998
:1055600000F03F00002831DDA888C0F3802028B972
:1055700024F4FE423946484619F052FD4FF0000B24
:1055800024F4FE406E280DD07F2804D0A0F5004002
:105590008E38A0B90DE06868C0F3C06008B14FF064
:1055A000010B0CE06868C0F3406008B14FF0010BDC
:1055B00005E06868C00F08B14FF0010B00BF00BFE5
:1055C000BBF1000F01D025E000E000BF394648469E
:1055D00012F0C4FA824608EB0A2084B201AA2146DE
:1055E000284600F087FA00900098012802D101981F
:1055F000BDE8FE8F029800F0800000B90AE00FB10C
:10560000002704E0484612F064FA814600BFB9F171
:10561000000F9BD100BF24F4FE447E2C06D0BE2C8C
:1056200007D0A4F500408E3840B900BF15F009F945
:10563000DEE742F6B010C0F60200D9E70020D7E757
:1056400040F2B000C2F2000000687047704730B509
:105650000002002300BF9C1804FB04F5854200D81B
:1056600023465208002AF6D1C3F30F150D801D07FB
:105670002D0E4D8030BD2DE9F04705460E461746EC
:10568000B8461DB94FF0FF30BDE8F087286810B963
:105690004FF0FF30F8E73146284608F06CFD04462D
:1056A000002C02DA4FF0FF30EEE7A01C2A68111838
:1056B00002224046FFF71DFC2146284608F0A4FDC3
:1056C00081464FEA162A0AF07F0000EA0900DBE76C
:1056D0002DE9F04705460E461746B8461DB94FF06E
:1056E000FF30BDE8F087286810B94FF0FF30F8E7C9
:1056F0003146284608F03FFD0446002C02DA4FF000
:10570000FF30EEE7A01C2A68111802224046FFF77E
:10571000F0FB2146284608F077FD81464FEA162A1D
:105720000AF07F0000EA0900DBE770B5054628684B
:1057300008B9002070BD002404E02146304608F07E
:1057400000FD04462146284608F067FD0646FF286E
:10575000F3D1A01C80B2EDE72DE9F04705460E46D7
:105760001746B8461DB94FF0FF30BDE8F0872868EE
:1057700010B94FF0FF30F8E73146284608F0FBFC3F
:105780000446002C02DA4FF0FF30EEE7A01C2A6836
:10579000111801224046FFF7ACFB2146284608F0CD
:1057A00033FD81464FEA162A0AF07F0000EA09001D
:1057B000DBE72DE9F04705460E461746B8461DB90A
:1057C0004FF0FF30BDE8F087286810B94FF0FF3088
:1057D000F8E73146284608F0CEFC0446002C02DAF1
:1057E0004FF0FF30EEE7A01C2A6811180422404653
:1057F000FFF77FFB2146284608F006FD81464FEA69
:10580000162A0AF07F0000EA0900DBE72DE9F041E3
:10581000044688460CB9BDE8F0814146204600F0B8
:10582000BAF9207900F03F0020B9042011F08BF87C
:10583000054608E0227902F03F02521C91002068E0
:1058400011F03EF9054600BF28460BF05BFC48B955
:105850002A46002349F22450C0F602000BF058FCFF
:1058600000BFFEE700BF05B9D5E700272079C0F3E8
:10587000C01008B1781CC7B22079C0F3801008B1FD
:10588000781CC7B2207900F03F0606E0701E55F87C
:10589000200045F82600701EC6B2BE42F6DC45F870
:1058A00027802079401C616860F3050161602560F4
:1058B00000BFB0E770B504462079C0F3C01018B13E
:1058C000204600F05EF970BD042011F03CF805465A
:1058D00000BF28460BF016FC48B92A46002349F2BF
:1058E0002450C0F602000BF013FC00BFFEE700BF1F
:1058F0000DB90020E7E7284614F02FFA2946204684
:10590000FFF784FF606820F08000803060602079BD
:10591000C0F3801040B12168086821684968226896
:1059200011602168486000BF2846CCE72DE9FC5F84
:1059300004468A46164614B90020BDE8FC9F20683C
:1059400008B90020F9E74FEA2A2BD8464FF0FF3973
:1059500000200190002529E0E9B2204614F09AFACF
:10596000009001AA51460098FFF785FE074647457B
:1059700004D1BDF8040030800120DEE72079C0F3B7
:10598000C01058B1002F09DB45B9A088C0F3002032
:1059900020B9BDF8040030800120CEE74F4503DD7B
:1059A000B946BDF804003080681C05B2207900F0CB
:1059B0003F00A842D0DCB9F1000F01DB0120BCE7B9
:1059C0000020BAE72DE9FC5F04468A46164614B962
:1059D0000020BDE8FC9F206808B90020F9E74FEAE5
:1059E0002A2BD8464FF0FF3900200190002529E0EE
:1059F000E9B2204614F04EFA009001AA51460098F0
:105A0000FFF766FE0746474504D1BDF90400308024
:105A10000120DEE72079C0F3C01058B1002F09DB68
:105A200045B9A088C0F3002020B9BDF9040030803A
:105A30000120CEE74F4503DDB946BDF904003080B3
:105A4000681C05B2207900F03F00A842D0DCB9F113
:105A5000000F01DB0120BCE70020BAE72DE9FC5F65
:105A600004468A46164614B90020BDE8FC9F20680B
:105A700008B90020F9E74FEA2A2BD8464FF0FF3942
:105A800000200190002529E0E9B2204614F002FA36
:105A9000009001AA51460098FFF75EFE0746474571
:105AA00004D19DF8040030700120DEE72079C0F3B6
:105AB000C01058B1002F09DB45B9A088C0F3002001
:105AC00020B99DF8040030700120CEE74F4503DD7A
:105AD000B9469DF804003070681C05B2207900F0CA
